:100000000C94B8000C94D60E0C94AF0E0C94E00037
:100010000C94E0000C94E0000C94E0000C94E000E0
:100020000C94E0000C94E0000C94E0000C94E000D0
:100030000C94E0000C94E0000C94E0000C94E000C0
:100040000C94650E0C94E0000C94330E0C940D0E81
:100050000C94E0000C94E0000C94E0000C94E000A0
:100060000C94E0000C94E00008000000BE922449CB
:10007000123EABAAAA2ABECDCCCC4C3E00000080DA
:10008000BEABAAAAAA3E00000000BF000000803F4D
:100090000000000000084178D3BB4387D1133D190D
:1000A0000E3CC3BD4282AD2B3E68EC8276BED98F3A
:1000B000E1A93E4C80EFFFBE01C4FF7F3F0000007E
:1000C000000007634236B79BD8A71A39685618AEA6
:1000D000BAAB558C1D3CB7CC5763BD6DEDFD753E7D
:1000E000F6177231BF000000803FCDCCCC3D0AD75F
:1000F000233C17B7D13877CC2B329595E6241FB126
:100100004F0A0000803FCDCCCC3D6F12833A95BFA3
:10011000D6337D1D9026B3CE010C00002041000097
:10012000C84200401C4620BCBE4CCA1B0E5AAEC57D
:100130009D7400000000250028002B000000000036
:10014000240027002A000404040404040404020216
:100150000202020203030303030301020408102046
:100160004080010204081020010204081020970FAB
:1001700011241FBECFEFD8E0DEBFCDBF22E0A6E73F
:10018000B1E001C01D92A632B207E1F711E0A0E094
:10019000B1E0E0EDF7E202C005900D92A637B1079D
:1001A000D9F710E0C8EBD0E004C02197FE010E940F
:1001B000D713C73BD107C9F70E94FD0E0C94E61375
:1001C0000C940000CF93DF9390E0FC01E65AFE4FC1
:1001D00024918A5B9E4FFC0184918823C1F090E0BA
:1001E000880F991FFC01E45CFE4FC591D491FC017E
:1001F000EE5CFE4FA591B4919FB7F8948881E22FF1
:10020000E0958E2388838C91E823EC939FBFDF9148
:10021000CF910895AF92BF92CF92DF92EF92FF926B
:100220000F931F93CF93DF936C017B018B01040F1E
:10023000151FEB015E01AE18BF08C017D10759F0BA
:100240006991D601ED91FC910190F081E02DC601FC
:100250000995892B79F7C501DF91CF911F910F91F6
:10026000FF90EF90DF90CF90BF90AF900895FC018A
:10027000538D448D252F30E0842F90E0821B930B0B
:10028000541710F0CF96089501970895FC01918DB1
:10029000828D981761F0A28DAE0FBF2FB11D5D96B4
:1002A0008C91928D9F5F9F73928F90E008958FEF56
:1002B0009FEF0895FC01918D828D981731F0828D0A
:1002C000E80FF11D858D90E008958FEF9FEF089561
:1002D000FC01918D228D892F90E0805C9F4F821BC5
:1002E00091098F739927089589E891E00E94680128
:1002F00021E0892B09F420E0822F089580E090E02E
:10030000892B29F00E94740181110C94000008953A
:10031000FC01A48DA80FB92FB11DA35ABF4F2C917A
:10032000848D90E001968F739927848FA689B78971
:100330002C93A089B1898C91837080648C93938D68
:10034000848D981306C00288F389E02D80818F7D0B
:1003500080830895EF92FF920F931F93CF93DF93C3
:10036000EC0181E0888F9B8D8C8D98131AC0E889F1
:10037000F989808185FF15C09FB7F894EE89FF89C0
:100380006083E889F98980818370806480839FBF5E
:1003900081E090E0DF91CF911F910F91FF90EF905E
:1003A0000895F62E0B8D10E00F5F1F4F0F7311276E
:1003B000E02E8C8D8E110CC00FB607FCFACFE889A9
:1003C000F989808185FFF5CFCE010E948801F1CFA8
:1003D000EB8DEC0FFD2FF11DE35AFF4FF0829FB71D
:1003E000F8940B8FEA89FB8980818062CFCFCF930D
:1003F000DF93EC01888D8823B9F0AA89BB89E8894D
:10040000F9898C9185FD03C0808186FD0DC00FB6F2
:1004100007FCF7CF8C9185FFF2CF808185FFEDCF70
:10042000CE010E948801E9CFDF91CF9108958E50CF
:10043000806480937C0080917A00806480937A004D
:1004400080917A0086FDFCCF8091780090917900B0
:1004500008953FB7F8948091850190918601A0910D
:100460008701B091880126B5A89B05C02F3F19F0E0
:100470000196A11DB11D3FBFBA2FA92F982F882724
:10048000BC01CD01620F711D811D911D42E0660FFF
:10049000771F881F991F4A95D1F708950895CF9324
:1004A000DF93EC0188819981DC01ED91FC91019051
:1004B000F081E02D09952A813B81820F931F9B8358
:1004C0008A83DF91CF910895CF93DF93EC018881E8
:1004D0009981DC01ED91FC910280F381E02D099579
:1004E0002A813B81820F931F9B838A83DF91CF9167
:1004F00008958F929F92AF92BF92CF92DF92EF9228
:10050000FF920F931F93CF93DF93CDB7DEB766971C
:100510000FB6F894DEBF0FBECDBF6C018E01095E31
:100520001F4F78018AE0882E912CA12CB12CCB0191
:10053000BA01A50194010E94B513942F852F605D27
:10054000F80162938F01A901692F782F4115510598
:100550006105710561F7A7014E1B5F0BBF01C60165
:100560000E94640266960FB6F894DEBF0FBECDBF40
:10057000DF91CF911F910F91FF90EF90DF90CF907F
:10058000BF90AF909F908F900895EF92FF920F933E
:100590001F93CF93DF93EC017B0162E20E944F0235
:1005A0008701F80161918F01662391F0E6E1F1E0A6
:1005B000F280FF2049F0329681816813F9CF6CE513
:1005C000CE010E944F026F2DCE010E944F02E9CF53
:1005D00062E2CE01DF91CF911F910F91FF90EF90DA
:1005E0000C944F0280339CF08A3324F08F3524F032
:1005F0008B3724F481E0089581344CF08B35D4F3AB
:1006000093ED980F81E09230B0F380E008958B3243
:10061000B9F7F0CF0F931F93CF93DF93EC018C8545
:10062000811140C009851A852FB7F8948091810106
:1006300090918201A0918301B09184012FBFF801B4
:1006400080879187A287B387D801ED91FC910284BE
:10065000F385E02DC801099597FF2AC02FB7F894BC
:100660008091810190918201A0918301B0918401D8
:100670002FBFF8014085518562857385841B950BDA
:10068000A60BB70B44815581668177818417950746
:10069000A607B707C8F28FEF9FEF97FD80E08B8723
:1006A00081E08C878B85DF91CF911F910F91089509
:1006B0009927F3CF1F93CF93DF93EC01162F0E945E
:1006C0000A03811306C01C8681E0DF91CF911F9140
:1006D000089580E0FACFCF93DF93EC01CE010E9422
:1006E0000A038B303CF489304CF4882349F081E0D4
:1006F000888710C08D3011F08032C9F71C86EECF8C
:10070000888581110AC081E090E0C15BDF4F998349
:10071000888380E0DF91CF91089582E090E0F5CF6B
:10072000FC010E96918380839383828388539F4F2D
:1007300095838483978386831086858580788587D3
:10074000089580917E0190917F01019690937F01A1
:1007500080937E0108950895FC0182819381009722
:10076000C1F024813581468157812417350740F037
:10077000138212820190F081E02D81E0808708953C
:10078000A9014F5F5F4F55834483820F931FFC0184
:10079000608308959F92AF92BF92CF92DF92EF92C3
:1007A000FF920F931F93CF93DF9300D000D01F923F
:1007B000CDB7DEB78C010E940A03D82EF80114864B
:1007C000F12CE12C70EFC72EC8010E940A03F8013A
:1007D0001486D81609F4C1C0811119C0F801E15B73
:1007E000FF4F82E090E09183808380E00F900F9034
:1007F0000F900F900F90DF91CF911F910F91FF906D
:10080000EF90DF90CF90BF90AF909F9008958C3580
:1008100009F09EC0C8010E940A038823F9F2E6E1AC
:10082000F1E0853709F088C0F801148664E0962E5F
:10083000B12CA12CC8010E940A03882379F28134CB
:100840004CF48053803148F0F801E15BFF4F83E0C6
:1008500090E0C9CF8F7D8753F5CF54E0AA0CBB1C25
:100860005A95E1F7A82AF80114869A949110E2CFDC
:10087000C501985D8115944020F4750123E0F222B2
:10088000A3CFC5019C5D8115944008F5F3E0BF221C
:10089000C701982F8827990F990F8A299B29B0E0C3
:1008A000A0E01196198280389105A105B10598F450
:1008B0008A835E0123E0A20EB11CF50162915F0103
:1008C000662309F481CFC8010E94AC03F6CFC501AD
:1008D000B0E0A0E0E7CF282F2F7320682A8336E00E
:1008E000B695A795979587953A95D1F7803291055A
:1008F00038F4806C8B835E0184E0A80EB11CDDCFE0
:10090000282F2F7320682B8326E0969587952A95AC
:10091000E1F78031910538F4806E8C835E01E5E06B
:10092000AE0EB11CCACF80688C83CD825E01F6E02A
:10093000AF0EB11CC2CF32969081992309F484CFB7
:100940008913F9CF8181882309F47ECFF8011486B9
:10095000682FC8010E94AC0337CF60E0C8010E9435
:10096000AC03F80182819381892B29F4E15BFF4F6D
:1009700084E090E038CF81E039CFEF92FF920F937F
:100980001F93CF93DF93DC01ED90FC90E7012A8168
:100990003B81E881F981E217F30780F4B901DF01B7
:1009A000EB014991BE018D010F5F1F4F5C91451313
:1009B00018C0D8014111F4CF309759F4FC0184815B
:1009C0009581820F931FD70113969C938E93129754
:1009D000F901CF01DF91CF911F910F91FF90EF901F
:1009E0000895FD014191DF014111FBCFD4CF4F921A
:1009F0005F926F927F928F929F92AF92BF92CF92AF
:100A0000DF92EF92FF920F931F93CF93DF93EC014E
:100A10008B0188818B32C9F18D32C1F52196FF247B
:100A2000F394888190ED980F9A3018F08E3209F087
:100A30004DC160E070E0CB01FE012191A0ED8A2E56
:100A4000820E39E0381520F16A3949E974078407C4
:100A500049E1940738F5AAE0B0E09B01AC010E949F
:100A6000E810912CB12CA12C240135014094509414
:100A700060947094461657066806790698F0680DDB
:100A8000791D8A1D9B1DEF01D7CF2196F12CC9CF6F
:100A9000211108C0FF20F1F161307105810550E896
:100AA0009507A0F0E12CEAE08E2E912CA12CB12C20
:100AB00061157105F0E88F079105C0F1A50194015A
:100AC0000E94B513CA01B901E394F2CFF801248161
:100AD00020782A6024839B01AC0188279927DC01B8
:100AE000821B930BA40BB50B80839183A283B383EA
:100AF0008F2DDF91CF911F910F91FF90EF90DF909D
:100B0000CF90BF90AF909F908F907F906F905F90AD
:100B10004F900895F8012481207828602483608311
:100B2000718382839383FF24F394E2CFFE012991A2
:100B300030ED320F3A3010F4E394F8CF2E32F1F466
:100B4000EF012196FE012196208150EDD52ED20E87
:100B500029E02D1598F06C3C3CEC73073CE08307D2
:100B6000910580F7AAE0B0E09B01AC010E94E8107B
:100B70006D0D711D811D911DEA94E4CF20812F7DA3
:100B8000D0E0C0E0253409F05DC021812D32D9F5D7
:100B90003296CC24C394DF01D0E0C0E02E2D0E2C81
:100BA000000C330B4AE0B42EFD01DD9040ED4D0DFD
:100BB0004A3008F042C0BC9EA001BD9E500D1124D9
:100BC000CD2DDD0CDD0BE097C40FD51FAE01420F1C
:100BD000531F4732510544F3F8018481CC20D1F0F2
:100BE00040E050E060E070E8F11003C040E050E009
:100BF000BA0180788C60F8018483408351836283DA
:100C00007383FC2C75CF2B3219F03196C12CC3CFD6
:100C10003296FCCF40E050E060E87FEFF11004C076
:100C200040E050E060E87FE780788C60F8018483E2
:100C3000408351836283738376CFCC2019F0D195A2
:100C4000C195D1092081211141C0CE0DD11DE7FCF4
:100C5000DA950E94C90F1C161D0604F5E12CC0FF91
:100C60000CC024E0E29EF0011124E65EFE4F2591C7
:100C70003591459154910E942A10D595C795E394DA
:100C8000209769F7F1109058F801248120782C60A2
:100C90002483608371838283938345CFD195C195EB
:100CA000D109E12C209771F3C0FF0CC044E0E49E11
:100CB000F0011124E651FF4F259135914591549152
:100CC0000E942A10D595C795E394ECCFF12C10CF54
:100CD000CF92DF92EF92FF92CF93DF9300D000D0BC
:100CE0001F92CDB7DEB7FC0184818F778630B9F0D3
:100CF00028F4843088F590E080E013C08A30E9F071
:100D00008C30B9F18830B9F780819181A281B381AB
:100D1000811520E89207A105B10568F702C080811E
:100D200090E00F900F900F900F900F90DF91CF9168
:100D3000FF90EF90DF90CF90089580819181A28104
:100D4000B381AC01BD0150586F4F7F4F4115510524
:100D50006140710580F6E5CF808191811D82BE01E1
:100D60006F5F7F4F0E94F704CE0101960E946806D4
:100D7000D8CFC080D180E280F38020E030E040E036
:100D800057ECC701B6010E94171287FDB4CF20E0CF
:100D90003EEF4FEF56E4C701B6010E94C40F18168C
:100DA0000CF4A9CFC701B6010E94E111CB01B9CF64
:100DB000CF93DF93DC01EB01EC81FD818A819B8184
:100DC0000896E817F90740F481E08887F0E0E0E052
:100DD000CF01DF91CF9108953897FD83EC83309751
:100DE000B9F31296CD91DC911397209791F0CF0132
:100DF0008C1B9D0B23E0959587952A95E1F78D83B4
:100E00001396FC93EE931297158214821782168222
:100E1000DFCF1196FC93EE93F3CFFC0125812223C3
:100E200039F0F8E02F0290011124820F931F0895EA
:100E300090E080E008950F931F93CF93DF938B0191
:100E4000EC01892BA1F06E817F816017710779F029
:100E50000115110541F06115710529F0C8010E94C5
:100E6000DD13892B21F0CE010E940D07E9CFCE01C1
:100E7000DF91CF911F910F9108959F92AF92BF92F2
:100E8000CF92DF92EF92FF920F931F93CF93DF9356
:100E9000EC018B01E42E0E946B03F82E81110EC031
:100EA000F12C8F2DDF91CF911F910F91FF90EF903B
:100EB000DF90CF90BF90AF909F900895CE010E9499
:100EC0000A03873209F415C114F5823209F411C1FD
:100ED000CE010E940A03B82E6E01FFE0CF0ED11C96
:100EE000E12C9C2CAD2C8B2D0E94F202882309F45E
:100EF00022C18FE3E81609F41EC11C86E394F601B3
:100F0000B1926F01CE010E940A03B82EECCF8B354F
:100F100009F455C08B37E1F6F8018481807880624E
:100F200084831182108213821282EE2009F452C04F
:100F30001C86CE010E946B03882309F4B1CF6DE7B4
:100F4000CE010E945A038111ACCFEA94E881F98165
:100F5000828193819B838A838481958122813381DD
:100F6000821B930B9F838E831D821C82CE010E9465
:100F70000A03873209F46EC0823209F46BC0CE01D5
:100F80000E940A03D82E0E94F202882309F45DC051
:100F90001C866D2DCE010E94AC03CE010E940A0377
:100FA000D82E0E94F2028111F3CF60E0CE010E94A0
:100FB000AC038A819B81892B09F052C027C0F801BC
:100FC00084818078806484831182108213821282EB
:100FD000E11007C0C15BDF4F85E090E09983888313
:100FE0005FCF1C86CE010E946B03882309F458CF83
:100FF0006DE5CE010E945A03811153CFEA946D85AD
:101000007E85C8010E94D806009729F4C15BDF4F96
:1010100084E090E0E3CF4E2DBC01CE010E943D075D
:10102000882309F43DCFCE010E946B03882309F485
:1010300037CF6DE5CE010E945A03811132CF6CE2A9
:10104000CE010E945A038111DACFC15BDF4F83E0EA
:1010500090E0C4CFCE010E94CA03882309F420CFB8
:10106000CE010E946B03882309F41ACF6AE3CE01F4
:101070000E945A03882349F36A817B81F8018081A9
:1010800091810E941B07BC01892B99F4CE010E941B
:10109000BD046C016D857E85C8010E94D806FC01E7
:1010A000892B09F4B3CF848180688483D782C68278
:1010B000BF014E2DCE010E943D07882309F4F0CEDA
:1010C000CE010E946B03882309F4EACE6DE7CE01BE
:1010D0000E945A038111E5CE6CE2CE010E945A03B0
:1010E000882309F4B2CFCE010E946B0381112ECF69
:1010F000D7CEE881F981828193819B838A83848121
:10110000958122813381821B930B9F838E831D8265
:101110001C82CE010E94CA03F82E882309F4C0CE97
:10112000CE010E94BD04F80124812078256024832B
:1011300091838083B6CEFE01EE0DF11D17868F855B
:10114000843781F4F801848180788660848381E02B
:101150008083F4E0EF1609F4A4CEC15BDF4F82E098
:1011600090E03CCF863641F4F80184818078866037
:1011700084831082F5E0EECF8E3621F484E0E8120D
:10118000ECCF8FCEB801892D9A2D0E94F7048823C9
:1011900009F45BCF86CEEF92FF920F931F93CF930C
:1011A000DF93EC018C81982F9F7739F480788062EF
:1011B0008C83198218821B821A828C8185FF1EC043
:1011C00061157105D9F07A018B01888199810E949E
:1011D0001B07009761F4B701CE010E94D806009763
:1011E00031F0FC0124812F77248317830683DF915C
:1011F000CF911F910F91FF90EF90089590E080E0C4
:10120000F6CFFC01248125FF04C0808191810C94DC
:101210001B0790E080E00895FB0101900020E9F7B2
:101220003197AF01461B570B0C9464022F923F92EB
:101230004F925F926F927F928F929F92AF92BF92E6
:10124000CF92DF92EF92FF920F931F93CF93DF9392
:10125000CDB7DEB76C970FB6F894DEBF0FBECDBF2B
:101260008C011B01DC0114968C9114978F778630CA
:1012700009F474C278F48230B0F0843008F04CC2C3
:1012800012964D915C9113976D917C91C1010E94D2
:10129000640226C28C3069F160F4883009F459C2C6
:1012A0008A3009F43FC267E271E0C1010E940C0973
:1012B000E5C1803209F4ECC18034A9F76BE5C101C6
:1012C0000E944F02F801008111810115110509F4F6
:1012D000DAC1B101C8010E941609C8010E940D07B8
:1012E0008C01892B09F4CFC16CE2C1010E944F022D
:1012F000ECCFF801C080D180E280F380A701960195
:10130000C701B6010E94C40F8111CDCF20E030E0AB
:10131000A901C701B6010E94C40F882379F0A70173
:101320009601C701B6010E9403119B01AC01C701E0
:10133000B6010E94C40F882309F4B5CF20E030E045
:10134000A901C701B6010E94C40F87FF08C06DE262
:10135000C1010E944F02F7FAF094F7F8F09420E8E8
:1013600036E948E15BE4C701B6010E94171287FD28
:1013700081C074E1A72EB12C00E210E0188E1F8A04
:10138000F501E65EFE4F2591359145915491C701D7
:10139000B6010E94171287FD13C0F501E651FF4FF9
:1013A0002591359145915491C701B6010E942A10AB
:1013B0006B017C012F89388D200F311F388F2F8BC7
:1013C0001595079534E0A31AB1088CEFA8168FEF96
:1013D000B806B1F655245A9420E030E0A901C701BF
:1013E000B6010E94171218160CF04BC02CEA35EC0F
:1013F00047E257E3C701B6010E94C40F18160CF468
:1014000040C0A52DB4E0AB02C0011124912C812C69
:10141000FC01EE5FFE4F3F019C01265E3E4F5901ED
:101420003FEF531671F1F301E80DF91D65917591C8
:1014300085919491A70196010E94171218169CF4A9
:10144000F501E80DF91D2591359145915491C7019C
:10145000B6010E942A106B017C018F89988D801B38
:10146000910B988F8F8B159507955A9494E0891A54
:101470009108D6CF00E210E055E0552E188E1F8A55
:10148000ABCFC701B6010E94E8114B015C012B01F3
:101490003C0106E080E492E4AFE0B0E0898F9A8FEF
:1014A000AB8FBC8F102F01509AE049165104610494
:1014B0007104C8F0698D7A8D8B8D9C8D2AE030E0A7
:1014C00040E050E00E94B513298F3A8F4B8F5C8F1C
:1014D000C301B2012AE030E040E050E00E94B513C1
:1014E00029013A01DFCFC501B4010E94C90F9B0158
:1014F000AC01C701B6010E9402116B017C01698D2C
:101500007A8D8B8D9C8D0E94C90F9B01AC01C70108
:10151000B6010E942A102B013C010E94E8116B01C8
:101520007C010E94C90F9B01AC01C301B2010E9462
:1015300002119B01AC010E9403110E94E811C60E2A
:10154000D71EE81EF91E898D9A8DAB8DBC8DC816ED
:10155000D906EA06FB06D8F09FEF891A990AA90A6C
:10156000B90AAF89B88DAB2B39F1BAE08B1691046B
:10157000A104B10408F1EF89F88D3196F88FEF8B53
:10158000C12CD12C7601812C912C540183942AE01A
:10159000422E512C612C712CC701B601A30192017E
:1015A0000E94B513672B682B692B51F4111644F474
:1015B00069017A011150F0CFC12CD12C7601E7CF0F
:1015C000B501A401C1010E947902112371F14E01FC
:1015D000F1E18F0E911C012F54019AE0492E512CFC
:1015E000612C712C015068F0C701B601A301920172
:1015F0000E94B513605DD4016E934D0169017A01BB
:10160000F1CF812F90E0BC0160957095F501E81B4A
:10161000F90B31978EE2808344275527461B570BE1
:101620006A0D7B1DC1010E946402EF89F88DEF2BCA
:1016300029F165E6C1010E944F020F89188D17FF3D
:1016400007C06DE2C1010E944F0211950195110979
:10165000FE0177969F018AE0E82EF12CC801B701C0
:101660000E94A113805D82938B01672BB9F7A901BA
:101670004E1B5F0BBF01C1010E946402D101129693
:101680008D919C9130C06DE5C1010E944F02F6CF53
:101690006BE7C1010E944F02F80100811181011521
:1016A0001105D1F0D80116966D917C91C1010E946F
:1016B000C5026AE3C1010E944F02B101C8010E9444
:1016C0001609C8010E940D078C01892B29F06CE2D4
:1016D000C1010E944F02E3CF6DE7C1010E944F029A
:1016E000F101828193816C960FB6F894DEBF0FBE34
:1016F000CDBFDF91CF911F910F91FF90EF90DF90C1
:10170000CF90BF90AF909F908F907F906F905F90A1
:101710004F903F902F9008956D917C91C1010E9450
:10172000C502DECFCD90DD90ED90FC90B701A60113
:10173000F7FE0BC06DE2C1010E944F0244275527FE
:10174000BA014C195D096E097F09C1010E94790235
:10175000C7CF4D915D916D917C91F7CF8C916CE2EB
:1017600071E0811102C061E371E0C1010E940C09C6
:10177000B7CF8F929F92AF92BF92CF92DF92EF92AC
:10178000FF920F931F93CF93DF93CDB7DEB7C7536D
:10179000D1400FB6F894DEBF0FBECDBF8EE00E94E1
:1017A0001702BC01990F880B990B0E94CB0F20E008
:1017B00030E040EA50E40E942A1020E030E040E8A7
:1017C0005AE30E942A109B01AC0160E070E583E4BB
:1017D00097E40E946F1120E030E44CE156E40E944F
:1017E000021124E731E348E65DE30E946F110E9495
:1017F00024129B01AC0160E070E081E695E40E9458
:101800006F1120E030E848E853E40E9402116B01B8
:101810007C0120E030E0A9010E94171220E030E0B6
:1018200040E05FE387FDF4C1C701B6010E940311E8
:101830000E94E11170937D0160937C0180E10E9420
:101840001702BC01990F880B990B0E94CB0F20E067
:1018500030E040EA50E40E942A1020E030EC4FE7EC
:1018600054E40E946F119B01AC0160E070E080EADB
:1018700090E40E946F1120E030E040E85FE30E94B6
:1018800002119B01AC0160E070E48CE196E40E94DF
:101890006F119B01AC0160E079ED88EF97E40E9445
:1018A0006F1125E23FE245E95FE30E946C1260930D
:1018B00078017093790180937A0190937B01109263
:1018C0007F0110927E0181EA93E090930101809361
:1018D000000180916900836080936900E89A2FB7C6
:1018E000F8948091810190918201A0918301B0913F
:1018F00084012FBF88519C4FAF4FBF4F2FB7F89433
:101900004091810150918201609183017091840125
:101910002FBF481759076A077B0780F380917E0124
:1019200090917F012CE3289FB001299F700D112415
:10193000072E000C880B990B0E94CB0F26E338EE84
:1019400046EE54E40E942A1020E030E040E752E4E2
:101950000E946F1120E030E04AE754E40E946F11CA
:1019600026E636E646E650E40E942A100E94E1117F
:10197000709377016093760189E891E00E94680195
:101980008E010F5F1F4F181619060CF088C0C80192
:101990000E94900389819A819C838B838F81988593
:1019A0009E838D8319868E8580788E87C05DDE4FFD
:1019B00019830883C053D14088E0FE01E05DFE4FEB
:1019C000DE01A85DBE4F01900D928A95E1F788E097
:1019D000FE01E85DFE4FDE01A952BF4F01900D925E
:1019E0008A95E1F7C152DF4F1882CF5DD04089E878
:1019F00091E0C052DF4F99838883C05ED040CD51C3
:101A0000DF4F1882C35ED040CC51DF4F198308836B
:101A1000C45ED040CA5DDE4F19821882C652D140E2
:101A20004AE0BE01665F7F4FCE0189529F4F0E9400
:101A30003D0767E371E0CE010A960E940109892BF8
:101A400051F067E371E0CE010A960E940109009708
:101A500011F00E94680663E471E0CE010A960E94CC
:101A60000109892B51F063E471E0CE010A960E94CE
:101A70000109009711F00E9468066EE471E0CE0142
:101A80000A960E940109892B51F06EE471E0CE01A3
:101A90000A960E940109009711F00E946806C80189
:101AA0000E949003A80164E571E0CE010A960E94AD
:101AB000CB08FC01892B41F0948190789460948349
:101AC0008AE591E091838083A80165E671E0CE010B
:101AD0000A960E94CB08FC01892B81F020917C01A1
:101AE00030917D01948190789A609483C901330F7D
:101AF000AA0BBB0B80839183A283B383A8016AE600
:101B000071E0CE010A960E94CB08FC01892B81F07E
:101B1000409178015091790160917A0170917B0137
:101B2000948190789C609483408351836283738313
:101B3000A8016EE671E0CE010A960E94CB08FC0176
:101B4000892B81F0209176013091770194819078F2
:101B50009A609483C901330FAA0BBB0B80839183D6
:101B6000A283B38389E891E0C952DF4F99838883C8
:101B7000C75DD040C752DF4F19821882C95DD0407F
:101B8000BE0169527F4FCE010A960E94160942E0BB
:101B900050E063E771E089E891E00E940A010E9449
:101BA00029026B017C018CE2882E99249394A12C4C
:101BB000B12C0E9429026C197D098E099F09683E8B
:101BC000734081059105A8F321E0821A9108A108CC
:101BD000B10888EEC80E83E0D81EE11CF11C811408
:101BE0009104A104B10429F7C95CDE4F0FB6F89443
:101BF000DEBF0FBECDBFDF91CF911F910F91FF9040
:101C0000EF90DF90CF90BF90AF909F908F9008950E
:101C1000C701B6010E9402110BCE1F920F920FB6A0
:101C20000F9211242F933F934F935F936F937F9362
:101C30008F939F93AF93BF93EF93FF9389E891E0C6
:101C40000E948801FF91EF91BF91AF919F918F9179
:101C50007F916F915F914F913F912F910F900FBEA8
:101C60000F901F9018951F920F920FB60F9211248C
:101C70002F938F939F93EF93FF93E0919901F091AE
:101C80009A018081E0919F01F091A00182FD1BC02B
:101C900090818091A2018F5F8F732091A3018217A1
:101CA00041F0E091A201F0E0E757FE4F958F80935D
:101CB000A201FF91EF919F918F912F910F900FBEF5
:101CC0000F901F9018958081F4CF1F920F920FB63E
:101CD0000F9211242F933F938F939F93AF93BF93B2
:101CE0008091810190918201A0918301B091840142
:101CF0003091800123E0230F2D3758F50196A11D67
:101D0000B11D209380018093810190938201A09363
:101D10008301B09384018091850190918601A09107
:101D20008701B09188010196A11DB11D80938501A5
:101D300090938601A0938701B0938801BF91AF91E2
:101D40009F918F913F912F910F900FBE0F901F90F9
:101D5000189526E8230F0296A11DB11DD2CF1F9220
:101D60000F920FB60F9211242F933F934F935F93CF
:101D70006F937F938F939F93AF93BF93EF93FF9353
:101D8000E0910201F09103010995FF91EF91BF915C
:101D9000AF919F918F917F916F915F914F913F9103
:101DA0002F910F900FBE0F901F9018951F920F92BA
:101DB0000FB60F9211242F933F934F935F936F931E
:101DC0007F938F939F93AF93BF93EF93FF93E09194
:101DD0000001F09101010995FF91EF91BF91AF9141
:101DE0009F918F917F916F915F914F913F912F9133
:101DF0000F900FBE0F901F901895789484B5826055
:101E000084BD84B5816084BD85B5826085BD85B59E
:101E1000816085BD80916E00816080936E0010921C
:101E20008100809181008260809381008091810097
:101E30008160809381008091800081608093800028
:101E40008091B10084608093B1008091B000816086
:101E50008093B00080917A00846080937A008091B2
:101E60007A00826080937A0080917A00816080930A
:101E70007A0080917A00806880937A001092C10085
:101E8000E0919901F0919A0182E08083E0919501BF
:101E9000F09196011082E0919701F091980180E114
:101EA00080831092A101E0919D01F0919E0186E056
:101EB0008083E0919B01F0919C018081806180830F
:101EC000E0919B01F0919C01808188608083E0918A
:101ED0009B01F0919C01808180688083E0919B014F
:101EE000F0919C0180818F7D808384E690E0A0E06A
:101EF000B0E080938D0190938E01A0938F01B093F9
:101F000090018EE00E94E20081E10E94E20082E006
:101F10000E94E200C0E0D0E00E94B90B2097E1F3FC
:101F20000E9474018823C1F30E940000F5CFE9E804
:101F3000F1E01382128288EE93E0A0E0B0E08483A7
:101F40009583A683B78388E091E09183808385ECB5
:101F500090E09587848784EC90E09787868780EC73
:101F600090E0918B808B81EC90E0938B828B82EC64
:101F700090E0958B848B86EC90E0978B868B118E0E
:101F8000128E138E148E08950E94061008F481E0BC
:101F90000895E89409C097FB3EF49095809570955C
:101FA00061957F4F8F4F9F4F9923A9F0F92F96E9A5
:101FB000BB279395F695879577956795B795F1111A
:101FC000F8CFFAF4BB0F11F460FF1BC06F5F7F4FB7
:101FD0008F4F9F4F16C0882311F096E911C07723C9
:101FE00021F09EE8872F762F05C0662371F096E8D2
:101FF000862F70E060E02AF09A95660F771F881FA1
:10200000DAF7880F9695879597F90895990F000844
:10201000550FAA0BE0E8FEEF16161706E807F907BA
:10202000C0F012161306E407F50798F0621B730B55
:10203000840B950B39F40A2661F0232B242B252BD6
:1020400021F408950A2609F4A140A6958FEF811D79
:10205000811D08950E943D100C94AE100E94A010A6
:1020600038F00E94A71020F0952311F00C949710DF
:102070000C949D1011240C94E2100E94BF1070F378
:10208000959FC1F3950F50E0551F629FF001729F1D
:10209000BB27F00DB11D639FAA27F00DB11DAA1F2C
:1020A000649F6627B00DA11D661F829F2227B00D79
:1020B000A11D621F739FB00DA11D621F839FA00D04
:1020C000611D221F749F3327A00D611D231F849F54
:1020D000600D211D822F762F6A2F11249F575040AB
:1020E0009AF0F1F088234AF0EE0FFF1FBB1F661F26
:1020F000771F881F91505040A9F79E3F510580F0EF
:102100000C9497100C94E2105F3FE4F3983ED4F3E4
:10211000869577956795B795F795E7959F5FC1F792
:10212000FE2B880F911D9695879597F9089597F93D
:102130009F6780E870E060E008959FEF80EC08956D
:1021400000240A9416161706180609060895002496
:102150000A9412161306140605060895092E039410
:10216000000C11F4882352F0BB0F40F4BF2B11F484
:1021700060FF04C06F5F7F4F8F4F9F4F089557FDE3
:102180009058440F551F59F05F3F71F04795880FE5
:1021900097FB991F61F09F3F79F08795089512167C
:1021A00013061406551FF2CF4695F1DF08C0161628
:1021B00017061806991FF1CF8695710561050894D9
:1021C0000895E894BB2766277727CB0197F90895F0
:1021D0000E94F310A59F900DB49F900DA49F800DB9
:1021E000911D11240895A29FB001B39FC001A39F28
:1021F000700D811D1124911DB29F700D811D112440
:10220000911D08955058BB27AA270E941A110C94BB
:10221000AE100E94A01038F00E94A71020F039F4F0
:102220009F3F19F426F40C949D100EF4E095E7FB03
:102230000C949710E92F0E94BF1058F3BA17620749
:1022400073078407950720F079F4A6F50C94E11044
:102250000EF4E0950B2EBA2FA02D0B01B9019001C1
:102260000C01CA01A0011124FF27591B99F0593F05
:1022700050F4503E68F11A16F040A22F232F342F4D
:102280004427585FF3CF469537952795A795F0409B
:102290005395C9F77EF41F16BA0B620B730B840BB0
:1022A000BAF09150A1F0FF0FBB1F661F771F881F68
:1022B000C2F70EC0BA0F621F731F841F48F48795C0
:1022C00077956795B795F7959E3F08F0B0CF9395B2
:1022D000880F08F09927EE0F9795879508950E942B
:1022E00083110C94AE100E94A71058F00E94A01009
:1022F00040F029F45F3F29F00C94971051110C9491
:10230000E2100C949D100E94BF1068F39923B1F362
:10231000552391F3951B550BBB27AA27621773070B
:10232000840738F09F5F5F4F220F331F441FAA1F9F
:10233000A9F335D00E2E3AF0E0E832D0915050405B
:10234000E695001CCAF72BD0FE2F29D0660F771F09
:10235000881FBB1F261737074807AB07B0E809F0EF
:10236000BB0B802DBF01FF2793585F4F3AF09E3F74
:10237000510578F00C9497100C94E2105F3FE4F351
:10238000983ED4F3869577956795B795F7959F5FB7
:10239000C9F7880F911D9695879597F90895E1E003
:1023A000660F771F881FBB1F621773078407BA0762
:1023B00020F0621B730B840BBA0BEE1F88F7E095BD
:1023C00008950E94E8116894B1110C94E2100895E8
:1023D0000E94C71088F09F5798F0B92F9927B751DE
:1023E000B0F0E1F0660F771F881F991F1AF0BA95B9
:1023F000C9F714C0B13091F00E94E110B1E0089526
:102400000C94E110672F782F8827B85F39F0B93F17
:10241000CCF3869577956795B395D9F73EF490956B
:102420008095709561957F4F8F4F9F4F08950E94C3
:10243000061008F48FEF089516F00C94F6120C9421
:102440009D1068940C9497100E94C710A8F39923CC
:10245000C1F3AEF3DF93CF931F930F93FF92C92F76
:10246000DD2788232AF02197660F771F881FDAF768
:1024700020E030E040E85FEB9FE3883920F0803EC9
:1024800038F021968F770E940311E8E6F0E004C04F
:102490000E940311E5E9F0E00E9404138B01BE01E4
:1024A000EC01FB2E6F5771097595771F880B990BFF
:1024B0000E94CB0F28E132E741E35FE30E943D1029
:1024C000AF2D9801AE01FF900F911F91CF91DF9139
:1024D0000E941A110C94AE10FA01EE0FFF1F3096F5
:1024E00021053105A1F16115710561F48038BFE363
:1024F0009B0749F168949038810561F08038BFEFFF
:102500009B0741F099234AF5FF3FE105310521057D
:1025100019F1E8940894E795D901AA2329F4AB2F7F
:10252000BE2FF85FD0F310C0FF5F70F4A695E0F700
:10253000F73950F019F0FF3A38F49F779F930DD098
:102540000F9007FC9058089546F00C949D1060E0A1
:1025500070E080E89FE308954FE79F775F934F9384
:102560003F932F930E9424122F913F914F915F919F
:102570000E942A100C94C41229F416F00C9497109F
:102580000C94E1100C949D100E94C710A8F396388B
:10259000A0F707F80F92E8942BE33AEA48EB5FE7DD
:1025A0000E9440100F920F920F924DB75EB70F929C
:1025B0000E946D13E2ECF0E00E9404134F915F91D2
:1025C000EF91FF91E595EE1FFF1F49F0FE57E06880
:1025D0004427EE0F441FFA95E1F74195550B0E94F1
:1025E00037130F9007FE0C942B1308959F3F31F083
:1025F000915020F4879577956795B795880F911D31
:102600009695879597F90895DF93CF931F930F932E
:10261000FF92EF92DF927B018C01689406C0DA2E64
:10262000EF010E943D10FE01E894A591259135919E
:1026300045915591A6F3EF010E941A11FE019701F1
:10264000A801DA9469F7DF90EF90FF900F911F9146
:10265000CF91DF9108959B01AC0160E070E080E8CC
:102660009FE30C946F110C9497100C94F6120E9437
:10267000C710D8F39923C9F3940F511DA3F39150B8
:10268000504094F059F0882332F0660F771F881F6E
:1026900091505040C1F79E3F51052CF7880F911D76
:1026A0009695879597F908955F3FACF0983E9CF01A
:1026B000BB27869577956795B79508F4B160939594
:1026C000C1F7BB0F58F711F460FFE8CF6F5F7F4F82
:1026D0008F4F9F4FE3CF0C94E210FA01DC01AA0F59
:1026E000BB1F9B01AC01BF5728F422273327442787
:1026F000507820C0B75190F4AB2F00244695379501
:102700002795011CA395D2F3002071F0220F331FEF
:10271000441FB395DAF30ED00C94021161307105A9
:10272000A0E88A07B94630F49B01AC0166277727F9
:1027300088279078309621F0208331834283538319
:102740000895AA1BBB1B51E107C0AA1FBB1FA617F8
:10275000B70710F0A61BB70B881F991F5A95A9F74A
:1027600080959095BC01CD010895A1E21A2EAA1B77
:10277000BB1BFD010DC0AA1FBB1FEE1FFF1FA21731
:10278000B307E407F50720F0A21BB30BE40BF50B2E
:10279000661F771F881F991F1A9469F760957095B7
:1027A000809590959B01AC01BD01CF010895EE0F7E
:1027B000FF1F0590F491E02D0994FB01DC018D9140
:1027C000019080190110D9F3990B0895F894FFCF67
:1027D0004E024E0200000000AA010A013701F70173
:1027E000680146015A012F2F22225C5C6208660CA8
:1027F0006E0A720D7409006E756C6C0074727565EA
:102800000066616C73650074656D706572617475E6
:10281000726100696C756D696E6163616F007665E8
:102820006E746F00746F70696300536861726B57E8
:10283000617463680074656D70006C75780076650E
:062840006E74000D0A0099
:00000001FF
